{
  "_format": "hh-sol-artifact-1",
  "contractName": "CrowdFunding",
  "sourceName": "contracts/CrowdFunding.sol",
  "abi": [
    {
      "inputs": [
        {
          "internalType": "address",
          "name": "_owner",
          "type": "address"
        },
        {
          "internalType": "string",
          "name": "_title",
          "type": "string"
        },
        {
          "internalType": "string",
          "name": "_description",
          "type": "string"
        },
        {
          "internalType": "uint256",
          "name": "_target",
          "type": "uint256"
        },
        {
          "internalType": "uint256",
          "name": "_deadline",
          "type": "uint256"
        }
      ],
      "name": "createCampaign",
      "outputs": [
        {
          "internalType": "uint256",
          "name": "",
          "type": "uint256"
        }
      ],
      "stateMutability": "nonpayable",
      "type": "function"
    },
    {
      "inputs": [
        {
          "internalType": "uint256",
          "name": "_id",
          "type": "uint256"
        }
      ],
      "name": "donateToCampaign",
      "outputs": [],
      "stateMutability": "payable",
      "type": "function"
    },
    {
      "inputs": [],
      "name": "getCampaigns",
      "outputs": [
        {
          "components": [
            {
              "internalType": "address",
              "name": "owner",
              "type": "address"
            },
            {
              "internalType": "string",
              "name": "title",
              "type": "string"
            },
            {
              "internalType": "string",
              "name": "description",
              "type": "string"
            },
            {
              "internalType": "uint256",
              "name": "target",
              "type": "uint256"
            },
            {
              "internalType": "uint256",
              "name": "deadline",
              "type": "uint256"
            },
            {
              "internalType": "uint256",
              "name": "amountCollected",
              "type": "uint256"
            },
            {
              "internalType": "address[]",
              "name": "donators",
              "type": "address[]"
            },
            {
              "internalType": "uint256[]",
              "name": "donations",
              "type": "uint256[]"
            }
          ],
          "internalType": "struct CrowdFunding.Campaign[]",
          "name": "",
          "type": "tuple[]"
        }
      ],
      "stateMutability": "view",
      "type": "function"
    },
    {
      "inputs": [
        {
          "internalType": "uint256",
          "name": "_id",
          "type": "uint256"
        }
      ],
      "name": "getDonators",
      "outputs": [
        {
          "internalType": "address[]",
          "name": "",
          "type": "address[]"
        },
        {
          "internalType": "uint256[]",
          "name": "",
          "type": "uint256[]"
        }
      ],
      "stateMutability": "view",
      "type": "function"
    }
  ],
  "bytecode": "0x608060405234801561001057600080fd5b506114b4806100206000396000f3fe60806040526004361061003f5760003560e01c8063075843c3146100445780630fa91fa91461008157806342a4fda8146100bf578063a6b03633146100db575b600080fd5b34801561005057600080fd5b5061006b60048036038101906100669190610a0c565b610106565b6040516100789190610ace565b60405180910390f35b34801561008d57600080fd5b506100a860048036038101906100a39190610ae9565b61021a565b6040516100b6929190610c92565b60405180910390f35b6100d960048036038101906100d49190610ae9565b61032a565b005b3480156100e757600080fd5b506100f061048d565b6040516100fd9190610fad565b60405180910390f35b6000806000806001548152602001908152602001600020905042816004015410610165576040517f08c379a000000000000000000000000000000000000000000000000000000000815260040161015c9061102c565b60405180910390fd5b868160000160006101000a81548173ffffffffffffffffffffffffffffffffffffffff021916908373ffffffffffffffffffffffffffffffffffffffff160217905550858160010190816101b99190611258565b50848160020190816101cb9190611258565b5083816003018190555082816004018190555060008160050181905550600160008154809291906101fb90611359565b91905055506001805461020e91906113a1565b91505095945050505050565b606080600080848152602001908152602001600020600601600080858152602001908152602001600020600701818054806020026020016040519081016040528092919081815260200182805480156102c857602002820191906000526020600020905b8160009054906101000a900473ffffffffffffffffffffffffffffffffffffffff1673ffffffffffffffffffffffffffffffffffffffff168152602001906001019080831161027e575b505050505091508080548060200260200160405190810160405280929190818152602001828054801561031a57602002820191906000526020600020905b815481526020019060010190808311610306575b5050505050905091509150915091565b60003490506000806000848152602001908152602001600020905080600601339080600181540180825580915050600190039060005260206000200160009091909190916101000a81548173ffffffffffffffffffffffffffffffffffffffff021916908373ffffffffffffffffffffffffffffffffffffffff1602179055508060070182908060018154018082558091505060019003906000526020600020016000909190919091505560008160000160009054906101000a900473ffffffffffffffffffffffffffffffffffffffff1673ffffffffffffffffffffffffffffffffffffffff168360405161041f90611406565b60006040518083038185875af1925050503d806000811461045c576040519150601f19603f3d011682016040523d82523d6000602084013e610461565b606091505b505090508015610487578282600501600082825461047f919061141b565b925050819055505b50505050565b6060600060015467ffffffffffffffff8111156104ad576104ac6108ab565b5b6040519080825280602002602001820160405280156104e657816020015b6104d36107c3565b8152602001906001900390816104cb5790505b50905060005b6001548110156107bb57600080828152602001908152602001600020604051806101000160405290816000820160009054906101000a900473ffffffffffffffffffffffffffffffffffffffff1673ffffffffffffffffffffffffffffffffffffffff1673ffffffffffffffffffffffffffffffffffffffff16815260200160018201805461057a9061107b565b80601f01602080910402602001604051908101604052809291908181526020018280546105a69061107b565b80156105f35780601f106105c8576101008083540402835291602001916105f3565b820191906000526020600020905b8154815290600101906020018083116105d657829003601f168201915b5050505050815260200160028201805461060c9061107b565b80601f01602080910402602001604051908101604052809291908181526020018280546106389061107b565b80156106855780601f1061065a57610100808354040283529160200191610685565b820191906000526020600020905b81548152906001019060200180831161066857829003601f168201915b505050505081526020016003820154815260200160048201548152602001600582015481526020016006820180548060200260200160405190810160405280929190818152602001828054801561073157602002820191906000526020600020905b8160009054906101000a900473ffffffffffffffffffffffffffffffffffffffff1673ffffffffffffffffffffffffffffffffffffffff16815260200190600101908083116106e7575b505050505081526020016007820180548060200260200160405190810160405280929190818152602001828054801561078957602002820191906000526020600020905b815481526020019060010190808311610775575b5050505050815250508282815181106107a5576107a461144f565b5b60200260200101819052508060010190506104ec565b508091505090565b604051806101000160405280600073ffffffffffffffffffffffffffffffffffffffff168152602001606081526020016060815260200160008152602001600081526020016000815260200160608152602001606081525090565b6000604051905090565b600080fd5b600080fd5b600073ffffffffffffffffffffffffffffffffffffffff82169050919050565b600061085d82610832565b9050919050565b61086d81610852565b811461087857600080fd5b50565b60008135905061088a81610864565b92915050565b600080fd5b600080fd5b6000601f19601f8301169050919050565b7f4e487b7100000000000000000000000000000000000000000000000000000000600052604160045260246000fd5b6108e38261089a565b810181811067ffffffffffffffff82111715610902576109016108ab565b5b80604052505050565b600061091561081e565b905061092182826108da565b919050565b600067ffffffffffffffff821115610941576109406108ab565b5b61094a8261089a565b9050602081019050919050565b82818337600083830152505050565b600061097961097484610926565b61090b565b90508281526020810184848401111561099557610994610895565b5b6109a0848285610957565b509392505050565b600082601f8301126109bd576109bc610890565b5b81356109cd848260208601610966565b91505092915050565b6000819050919050565b6109e9816109d6565b81146109f457600080fd5b50565b600081359050610a06816109e0565b92915050565b600080600080600060a08688031215610a2857610a27610828565b5b6000610a368882890161087b565b955050602086013567ffffffffffffffff811115610a5757610a5661082d565b5b610a63888289016109a8565b945050604086013567ffffffffffffffff811115610a8457610a8361082d565b5b610a90888289016109a8565b9350506060610aa1888289016109f7565b9250506080610ab2888289016109f7565b9150509295509295909350565b610ac8816109d6565b82525050565b6000602082019050610ae36000830184610abf565b92915050565b600060208284031215610aff57610afe610828565b5b6000610b0d848285016109f7565b91505092915050565b600081519050919050565b600082825260208201905092915050565b6000819050602082019050919050565b610b4b81610852565b82525050565b6000610b5d8383610b42565b60208301905092915050565b6000602082019050919050565b6000610b8182610b16565b610b8b8185610b21565b9350610b9683610b32565b8060005b83811015610bc7578151610bae8882610b51565b9750610bb983610b69565b925050600181019050610b9a565b5085935050505092915050565b600081519050919050565b600082825260208201905092915050565b6000819050602082019050919050565b610c09816109d6565b82525050565b6000610c1b8383610c00565b60208301905092915050565b6000602082019050919050565b6000610c3f82610bd4565b610c498185610bdf565b9350610c5483610bf0565b8060005b83811015610c85578151610c6c8882610c0f565b9750610c7783610c27565b925050600181019050610c58565b5085935050505092915050565b60006040820190508181036000830152610cac8185610b76565b90508181036020830152610cc08184610c34565b90509392505050565b600081519050919050565b600082825260208201905092915050565b6000819050602082019050919050565b600081519050919050565b600082825260208201905092915050565b60005b83811015610d2f578082015181840152602081019050610d14565b60008484015250505050565b6000610d4682610cf5565b610d508185610d00565b9350610d60818560208601610d11565b610d698161089a565b840191505092915050565b600082825260208201905092915050565b6000610d9082610b16565b610d9a8185610d74565b9350610da583610b32565b8060005b83811015610dd6578151610dbd8882610b51565b9750610dc883610b69565b925050600181019050610da9565b5085935050505092915050565b600082825260208201905092915050565b6000610dff82610bd4565b610e098185610de3565b9350610e1483610bf0565b8060005b83811015610e45578151610e2c8882610c0f565b9750610e3783610c27565b925050600181019050610e18565b5085935050505092915050565b600061010083016000830151610e6b6000860182610b42565b5060208301518482036020860152610e838282610d3b565b91505060408301518482036040860152610e9d8282610d3b565b9150506060830151610eb26060860182610c00565b506080830151610ec56080860182610c00565b5060a0830151610ed860a0860182610c00565b5060c083015184820360c0860152610ef08282610d85565b91505060e083015184820360e0860152610f0a8282610df4565b9150508091505092915050565b6000610f238383610e52565b905092915050565b6000602082019050919050565b6000610f4382610cc9565b610f4d8185610cd4565b935083602082028501610f5f85610ce5565b8060005b85811015610f9b5784840389528151610f7c8582610f17565b9450610f8783610f2b565b925060208a01995050600181019050610f63565b50829750879550505050505092915050565b60006020820190508181036000830152610fc78184610f38565b905092915050565b600082825260208201905092915050565b7f446561646c696e65206d75737420626520696e20746865206675747572650000600082015250565b6000611016601e83610fcf565b915061102182610fe0565b602082019050919050565b6000602082019050818103600083015261104581611009565b9050919050565b7f4e487b7100000000000000000000000000000000000000000000000000000000600052602260045260246000fd5b6000600282049050600182168061109357607f821691505b6020821081036110a6576110a561104c565b5b50919050565b60008190508160005260206000209050919050565b60006020601f8301049050919050565b600082821b905092915050565b60006008830261110e7fffffffffffffffffffffffffffffffffffffffffffffffffffffffffffffffff826110d1565b61111886836110d1565b95508019841693508086168417925050509392505050565b6000819050919050565b600061115561115061114b846109d6565b611130565b6109d6565b9050919050565b6000819050919050565b61116f8361113a565b61118361117b8261115c565b8484546110de565b825550505050565b600090565b61119861118b565b6111a3818484611166565b505050565b5b818110156111c7576111bc600082611190565b6001810190506111a9565b5050565b601f82111561120c576111dd816110ac565b6111e6846110c1565b810160208510156111f5578190505b611209611201856110c1565b8301826111a8565b50505b505050565b600082821c905092915050565b600061122f60001984600802611211565b1980831691505092915050565b6000611248838361121e565b9150826002028217905092915050565b61126182610cf5565b67ffffffffffffffff81111561127a576112796108ab565b5b611284825461107b565b61128f8282856111cb565b600060209050601f8311600181146112c257600084156112b0578287015190505b6112ba858261123c565b865550611322565b601f1984166112d0866110ac565b60005b828110156112f8578489015182556001820191506020850194506020810190506112d3565b868310156113155784890151611311601f89168261121e565b8355505b6001600288020188555050505b505050505050565b7f4e487b7100000000000000000000000000000000000000000000000000000000600052601160045260246000fd5b6000611364826109d6565b91507fffffffffffffffffffffffffffffffffffffffffffffffffffffffffffffffff82036113965761139561132a565b5b600182019050919050565b60006113ac826109d6565b91506113b7836109d6565b92508282039050818111156113cf576113ce61132a565b5b92915050565b600081905092915050565b50565b60006113f06000836113d5565b91506113fb826113e0565b600082019050919050565b6000611411826113e3565b9150819050919050565b6000611426826109d6565b9150611431836109d6565b92508282019050808211156114495761144861132a565b5b92915050565b7f4e487b7100000000000000000000000000000000000000000000000000000000600052603260045260246000fdfea2646970667358221220af62cede09b77b8281c117dfdf89186f5c6cd936a23fbcd418a0e3a01e822bf464736f6c63430008130033",
  "linkReferences": {},
  "deployedLinkReferences": {}
}